{
  "_format": "hh-sol-artifact-1",
  "contractName": "WavePortal",
  "sourceName": "contracts/WavePortal.sol",
  "abi": [
    {
      "inputs": [],
      "stateMutability": "nonpayable",
      "type": "constructor"
    },
    {
      "inputs": [],
      "name": "getTotalWavers",
      "outputs": [
        {
          "internalType": "uint256",
          "name": "",
          "type": "uint256"
        }
      ],
      "stateMutability": "view",
      "type": "function"
    },
    {
      "inputs": [],
      "name": "getTotalWaves",
      "outputs": [
        {
          "internalType": "uint256",
          "name": "",
          "type": "uint256"
        }
      ],
      "stateMutability": "view",
      "type": "function"
    },
    {
      "inputs": [],
      "name": "wave",
      "outputs": [],
      "stateMutability": "nonpayable",
      "type": "function"
    }
  ],
  "bytecode": "0x608060405234801561001057600080fd5b506100596040518060400160405280600481526020017f426972620000000000000000000000000000000000000000000000000000000081525061005e60201b6103221760201c565b6101d8565b6100fa8160405160240161007291906101b6565b6040516020818303038152906040527f41304fac000000000000000000000000000000000000000000000000000000007bffffffffffffffffffffffffffffffffffffffffffffffffffffffff19166020820180517bffffffffffffffffffffffffffffffffffffffffffffffffffffffff83818316178352505050506100fd60201b60201c565b50565b60008151905060006a636f6e736f6c652e6c6f679050602083016000808483855afa5050505050565b600081519050919050565b600082825260208201905092915050565b60005b83811015610160578082015181840152602081019050610145565b60008484015250505050565b6000601f19601f8301169050919050565b600061018882610126565b6101928185610131565b93506101a2818560208601610142565b6101ab8161016c565b840191505092915050565b600060208201905081810360008301526101d0818461017d565b905092915050565b6107b3806101e76000396000f3fe608060405234801561001057600080fd5b50600436106100415760003560e01c80636fe15b44146100465780639a2cdc0814610050578063a126adab1461006e575b600080fd5b61004e61008c565b005b610058610273565b6040516100659190610535565b60405180910390f35b6100766102be565b6040516100839190610535565b60405180910390f35b60003390506000805b60018054905081101561012b57600181815481106100b6576100b5610550565b5b9060005260206000200160009054906101000a900473ffffffffffffffffffffffffffffffffffffffff1673ffffffffffffffffffffffffffffffffffffffff168373ffffffffffffffffffffffffffffffffffffffff160361011857600191505b8080610123906105ae565b915050610095565b508015610175576101706040518060400160405280600e81526020017f416c6c7265616479207761766564000000000000000000000000000000000000815250610322565b610230565b6001829080600181540180825580915050600190039060005260206000200160009091909190916101000a81548173ffffffffffffffffffffffffffffffffffffffff021916908373ffffffffffffffffffffffffffffffffffffffff16021790555060016000808282546101ea91906105f6565b9250508190555061022f6040518060400160405280600e81526020017f4e65772061646479207761766564000000000000000000000000000000000000815250610322565b5b61026f6040518060400160405280600d81526020017f2573206861732077617665642100000000000000000000000000000000000000815250836103bb565b5050565b60006102b66040518060400160405280601781526020017f5765206861766520256420746f74616c20776176657321000000000000000000815250600054610457565b600054905090565b60008060009050600060018054905011156102dc5760018054905090505b61031b6040518060400160405280601881526020017f5765206861766520256420746f74616c2077617665727321000000000000000081525082610457565b8091505090565b6103b88160405160240161033691906106ba565b6040516020818303038152906040527f41304fac000000000000000000000000000000000000000000000000000000007bffffffffffffffffffffffffffffffffffffffffffffffffffffffff19166020820180517bffffffffffffffffffffffffffffffffffffffffffffffffffffffff83818316178352505050506104f3565b50565b61045382826040516024016103d192919061071d565b6040516020818303038152906040527f319af333000000000000000000000000000000000000000000000000000000007bffffffffffffffffffffffffffffffffffffffffffffffffffffffff19166020820180517bffffffffffffffffffffffffffffffffffffffffffffffffffffffff83818316178352505050506104f3565b5050565b6104ef828260405160240161046d92919061074d565b6040516020818303038152906040527fb60e72cc000000000000000000000000000000000000000000000000000000007bffffffffffffffffffffffffffffffffffffffffffffffffffffffff19166020820180517bffffffffffffffffffffffffffffffffffffffffffffffffffffffff83818316178352505050506104f3565b5050565b60008151905060006a636f6e736f6c652e6c6f679050602083016000808483855afa5050505050565b6000819050919050565b61052f8161051c565b82525050565b600060208201905061054a6000830184610526565b92915050565b7f4e487b7100000000000000000000000000000000000000000000000000000000600052603260045260246000fd5b7f4e487b7100000000000000000000000000000000000000000000000000000000600052601160045260246000fd5b60006105b98261051c565b91507fffffffffffffffffffffffffffffffffffffffffffffffffffffffffffffffff82036105eb576105ea61057f565b5b600182019050919050565b60006106018261051c565b915061060c8361051c565b92508282019050808211156106245761062361057f565b5b92915050565b600081519050919050565b600082825260208201905092915050565b60005b83811015610664578082015181840152602081019050610649565b60008484015250505050565b6000601f19601f8301169050919050565b600061068c8261062a565b6106968185610635565b93506106a6818560208601610646565b6106af81610670565b840191505092915050565b600060208201905081810360008301526106d48184610681565b905092915050565b600073ffffffffffffffffffffffffffffffffffffffff82169050919050565b6000610707826106dc565b9050919050565b610717816106fc565b82525050565b600060408201905081810360008301526107378185610681565b9050610746602083018461070e565b9392505050565b600060408201905081810360008301526107678185610681565b90506107766020830184610526565b939250505056fea26469706673582212208e062cbdd6496c7281399e75b012a11206256d6a0fbb536d68c61731805e31fd64736f6c63430008110033",
  "linkReferences": {},
  "deployedLinkReferences": {}
}